{
    "contractName": "IsmpDemo",
    "abi": [
        {
            "inputs": [
                {
                    "internalType": "address",
                    "name": "_ismpHost",
                    "type": "address"
                }
            ],
            "stateMutability": "nonpayable",
            "type": "constructor"
        },
        {
            "inputs": [],
            "name": "NotIsmpHost",
            "type": "error"
        },
        {
            "anonymous": false,
            "inputs": [],
            "name": "BalanceBurnt",
            "type": "event"
        },
        {
            "anonymous": false,
            "inputs": [],
            "name": "BalanceMinted",
            "type": "event"
        },
        {
            "anonymous": false,
            "inputs": [],
            "name": "GetDispatched",
            "type": "event"
        },
        {
            "anonymous": false,
            "inputs": [],
            "name": "ResponseReceived",
            "type": "event"
        },
        {
            "inputs": [
                {
                    "components": [
                        {
                            "internalType": "bytes",
                            "name": "source",
                            "type": "bytes"
                        },
                        {
                            "internalType": "bytes",
                            "name": "dest",
                            "type": "bytes"
                        },
                        {
                            "internalType": "uint256",
                            "name": "nonce",
                            "type": "uint256"
                        },
                        {
                            "internalType": "bytes",
                            "name": "from",
                            "type": "bytes"
                        },
                        {
                            "internalType": "bytes",
                            "name": "to",
                            "type": "bytes"
                        },
                        {
                            "internalType": "uint256",
                            "name": "timeoutTimestamp",
                            "type": "uint256"
                        },
                        {
                            "components": [
                                {
                                    "internalType": "bytes",
                                    "name": "data",
                                    "type": "bytes"
                                },
                                {
                                    "internalType": "uint64",
                                    "name": "gasLimit",
                                    "type": "uint64"
                                }
                            ],
                            "internalType": "struct ContractData",
                            "name": "data",
                            "type": "tuple"
                        }
                    ],
                    "internalType": "struct PostRequest",
                    "name": "request",
                    "type": "tuple"
                }
            ],
            "name": "OnAccept",
            "outputs": [],
            "stateMutability": "nonpayable",
            "type": "function"
        },
        {
            "inputs": [
                {
                    "components": [
                        {
                            "components": [
                                {
                                    "internalType": "bytes",
                                    "name": "source",
                                    "type": "bytes"
                                },
                                {
                                    "internalType": "bytes",
                                    "name": "dest",
                                    "type": "bytes"
                                },
                                {
                                    "internalType": "uint256",
                                    "name": "nonce",
                                    "type": "uint256"
                                },
                                {
                                    "internalType": "bytes",
                                    "name": "from",
                                    "type": "bytes"
                                },
                                {
                                    "internalType": "uint256",
                                    "name": "timeoutTimestamp",
                                    "type": "uint256"
                                },
                                {
                                    "internalType": "bytes[]",
                                    "name": "keys",
                                    "type": "bytes[]"
                                },
                                {
                                    "internalType": "uint256",
                                    "name": "height",
                                    "type": "uint256"
                                }
                            ],
                            "internalType": "struct GetRequest",
                            "name": "request",
                            "type": "tuple"
                        },
                        {
                            "components": [
                                {
                                    "internalType": "bytes",
                                    "name": "key",
                                    "type": "bytes"
                                },
                                {
                                    "internalType": "bytes",
                                    "name": "value",
                                    "type": "bytes"
                                }
                            ],
                            "internalType": "struct StorageValue[]",
                            "name": "values",
                            "type": "tuple[]"
                        }
                    ],
                    "internalType": "struct GetResponse",
                    "name": "response",
                    "type": "tuple"
                }
            ],
            "name": "OnGetResponse",
            "outputs": [],
            "stateMutability": "nonpayable",
            "type": "function"
        },
        {
            "inputs": [
                {
                    "components": [
                        {
                            "internalType": "bytes",
                            "name": "source",
                            "type": "bytes"
                        },
                        {
                            "internalType": "bytes",
                            "name": "dest",
                            "type": "bytes"
                        },
                        {
                            "internalType": "uint256",
                            "name": "nonce",
                            "type": "uint256"
                        },
                        {
                            "internalType": "bytes",
                            "name": "from",
                            "type": "bytes"
                        },
                        {
                            "internalType": "uint256",
                            "name": "timeoutTimestamp",
                            "type": "uint256"
                        },
                        {
                            "internalType": "bytes[]",
                            "name": "keys",
                            "type": "bytes[]"
                        },
                        {
                            "internalType": "uint256",
                            "name": "height",
                            "type": "uint256"
                        }
                    ],
                    "internalType": "struct GetRequest",
                    "name": "request",
                    "type": "tuple"
                }
            ],
            "name": "OnGetTimeout",
            "outputs": [],
            "stateMutability": "nonpayable",
            "type": "function"
        },
        {
            "inputs": [
                {
                    "components": [
                        {
                            "components": [
                                {
                                    "internalType": "bytes",
                                    "name": "source",
                                    "type": "bytes"
                                },
                                {
                                    "internalType": "bytes",
                                    "name": "dest",
                                    "type": "bytes"
                                },
                                {
                                    "internalType": "uint256",
                                    "name": "nonce",
                                    "type": "uint256"
                                },
                                {
                                    "internalType": "bytes",
                                    "name": "from",
                                    "type": "bytes"
                                },
                                {
                                    "internalType": "bytes",
                                    "name": "to",
                                    "type": "bytes"
                                },
                                {
                                    "internalType": "uint256",
                                    "name": "timeoutTimestamp",
                                    "type": "uint256"
                                },
                                {
                                    "components": [
                                        {
                                            "internalType": "bytes",
                                            "name": "data",
                                            "type": "bytes"
                                        },
                                        {
                                            "internalType": "uint64",
                                            "name": "gasLimit",
                                            "type": "uint64"
                                        }
                                    ],
                                    "internalType": "struct ContractData",
                                    "name": "data",
                                    "type": "tuple"
                                }
                            ],
                            "internalType": "struct PostRequest",
                            "name": "request",
                            "type": "tuple"
                        },
                        {
                            "internalType": "bytes",
                            "name": "response",
                            "type": "bytes"
                        }
                    ],
                    "internalType": "struct PostResponse",
                    "name": "response",
                    "type": "tuple"
                }
            ],
            "name": "OnPostResponse",
            "outputs": [],
            "stateMutability": "nonpayable",
            "type": "function"
        },
        {
            "inputs": [
                {
                    "components": [
                        {
                            "internalType": "bytes",
                            "name": "source",
                            "type": "bytes"
                        },
                        {
                            "internalType": "bytes",
                            "name": "dest",
                            "type": "bytes"
                        },
                        {
                            "internalType": "uint256",
                            "name": "nonce",
                            "type": "uint256"
                        },
                        {
                            "internalType": "bytes",
                            "name": "from",
                            "type": "bytes"
                        },
                        {
                            "internalType": "bytes",
                            "name": "to",
                            "type": "bytes"
                        },
                        {
                            "internalType": "uint256",
                            "name": "timeoutTimestamp",
                            "type": "uint256"
                        },
                        {
                            "components": [
                                {
                                    "internalType": "bytes",
                                    "name": "data",
                                    "type": "bytes"
                                },
                                {
                                    "internalType": "uint64",
                                    "name": "gasLimit",
                                    "type": "uint64"
                                }
                            ],
                            "internalType": "struct ContractData",
                            "name": "data",
                            "type": "tuple"
                        }
                    ],
                    "internalType": "struct PostRequest",
                    "name": "request",
                    "type": "tuple"
                }
            ],
            "name": "OnPostTimeout",
            "outputs": [],
            "stateMutability": "nonpayable",
            "type": "function"
        },
        {
            "inputs": [
                {
                    "internalType": "address",
                    "name": "",
                    "type": "address"
                }
            ],
            "name": "balances",
            "outputs": [
                {
                    "internalType": "uint256",
                    "name": "",
                    "type": "uint256"
                }
            ],
            "stateMutability": "view",
            "type": "function"
        },
        {
            "inputs": [
                {
                    "internalType": "bytes",
                    "name": "dest",
                    "type": "bytes"
                },
                {
                    "internalType": "bytes[]",
                    "name": "keys",
                    "type": "bytes[]"
                },
                {
                    "internalType": "uint256",
                    "name": "height",
                    "type": "uint256"
                },
                {
                    "internalType": "uint256",
                    "name": "timeout",
                    "type": "uint256"
                },
                {
                    "internalType": "uint64",
                    "name": "gasLimit",
                    "type": "uint64"
                }
            ],
            "name": "dispatchGet",
            "outputs": [],
            "stateMutability": "nonpayable",
            "type": "function"
        },
        {
            "inputs": [
                {
                    "internalType": "address",
                    "name": "who",
                    "type": "address"
                },
                {
                    "internalType": "uint256",
                    "name": "amount",
                    "type": "uint256"
                }
            ],
            "name": "mintTo",
            "outputs": [],
            "stateMutability": "nonpayable",
            "type": "function"
        },
        {
            "inputs": [
                {
                    "internalType": "bytes",
                    "name": "",
                    "type": "bytes"
                }
            ],
            "name": "moduleIds",
            "outputs": [
                {
                    "internalType": "bytes",
                    "name": "",
                    "type": "bytes"
                }
            ],
            "stateMutability": "view",
            "type": "function"
        },
        {
            "inputs": [
                {
                    "internalType": "address",
                    "name": "to",
                    "type": "address"
                },
                {
                    "internalType": "bytes",
                    "name": "dest",
                    "type": "bytes"
                },
                {
                    "internalType": "uint256",
                    "name": "amount",
                    "type": "uint256"
                },
                {
                    "internalType": "uint256",
                    "name": "timeout",
                    "type": "uint256"
                },
                {
                    "internalType": "uint64",
                    "name": "gasLimit",
                    "type": "uint64"
                }
            ],
            "name": "transfer",
            "outputs": [],
            "stateMutability": "nonpayable",
            "type": "function"
        }
    ],
    "bytecode": "608060405234801561001057600080fd5b5060405161149b38038061149b83398101604081905261002f91610054565b600080546001600160a01b0319166001600160a01b0392909216919091179055610084565b60006020828403121561006657600080fd5b81516001600160a01b038116811461007d57600080fd5b9392505050565b611408806100936000396000f3fe608060405234801561001057600080fd5b506004361061009e5760003560e01c8063880e2bd911610066578063880e2bd91461011f5780638ad5744c14610132578063a428bcda14610145578063c85ad8cf14610158578063dcbde0df1461016b57600080fd5b806312a7beee146100a357806320d1638a146100b857806327e235e3146100cb578063449a52f8146100fe57806372b6933d14610111575b600080fd5b6100b66100b1366004610af2565b61018b565b005b6100b66100c6366004610d0a565b6101f9565b6100eb6100d9366004610d5e565b60026020526000908152604090205481565b6040519081526020015b60405180910390f35b6100b661010c366004610d82565b610250565b6100b66100c6366004610dae565b6100b661012d366004610f0b565b610289565b6100b6610140366004610f3f565b610308565b6100b6610153366004610fb2565b6104fb565b6100b6610166366004610f0b565b6105d9565b61017e610179366004611010565b61072a565b6040516100f59190611094565b6000546001600160a01b031633146101b6576040516351ab8de560e01b815260040160405180910390fd5b805160c00151516000906101c9906107cf565b6040519091507f2d87323053ce5d424f6bb99d64894f647db556f19f4319ee6bf817bf23bf520790600090a15050565b6000546001600160a01b03163314610224576040516351ab8de560e01b815260040160405180910390fd5b6040517f2d87323053ce5d424f6bb99d64894f647db556f19f4319ee6bf817bf23bf520790600090a150565b6000546001600160a01b0316331461027b576040516351ab8de560e01b815260040160405180910390fd5b6102858282610804565b5050565b6000546001600160a01b031633146102b4576040516351ab8de560e01b815260040160405180910390fd5b60006102c78260c00151600001516107cf565b90506102db81602001518260400151610804565b6040517f6cc69d45d4c21d1cb43e28df929c90259b7ad8d41e32f02f47ccda71aeb046ab90600090a15050565b6103123384610859565b60408051606080820183526001600160a01b038881168352336020840190815283850188815285518087019096528451831693860193909352511660808401525160a0830152906000908060c081016040516020818303038152906040528152602001846001600160401b03168152509050600060405180608001604052808881526020016003896040516103a791906110a7565b908152602001604051809103902080546103c0906110c3565b80601f01602080910402602001604051908101604052809291908181526020018280546103ec906110c3565b80156104395780601f1061040e57610100808354040283529160200191610439565b820191906000526020600020905b81548152906001019060200180831161041c57829003601f168201915b5050505050815260200183815260200186815250905060016001600160a01b03168160405160200161046b919061112f565b60408051601f1981840301815290829052610485916110a7565b600060405180830381855afa9150503d80600081146104c0576040519150601f19603f3d011682016040523d82523d6000602084013e6104c5565b606091505b50506040517fb56b29fc7f72737821b2cf8a996ecebbea0d83daada768f5564a873f402cdd219150600090a15050505050505050565b60006040518060a00160405280878152602001858152602001868152602001848152602001836001600160401b0316815250905060026001600160a01b03168160405160200161054b919061119e565b60408051601f1981840301815290829052610565916110a7565b600060405180830381855afa9150503d80600081146105a0576040519150601f19603f3d011682016040523d82523d6000602084013e6105a5565b606091505b50506040517f51a298a0eb173998598862ac7e847cb267f553d502347aec82bf8b81528dd7aa9150600090a1505050505050565b6000546001600160a01b03163314610604576040516351ab8de560e01b815260040160405180910390fd5b60006106178260c00151600001516107cf565b90506000604051806040016040528084815260200133604051602001610655919060609190911b6bffffffffffffffffffffffff1916815260140190565b604051602081830303815290604052815250905061067b82600001518360400151610804565b60008060036001600160a01b03168360405160200161069a9190611252565b60408051601f19818403018152908290526106b4916110a7565b600060405180830381855afa9150503d80600081146106ef576040519150601f19603f3d011682016040523d82523d6000602084013e6106f4565b606091505b5060405191935091507f6cc69d45d4c21d1cb43e28df929c90259b7ad8d41e32f02f47ccda71aeb046ab90600090a15050505050565b80516020818301810180516003825292820191909301209152805461074e906110c3565b80601f016020809104026020016040519081016040528092919081815260200182805461077a906110c3565b80156107c75780601f1061079c576101008083540402835291602001916107c7565b820191906000526020600020905b8154815290600101906020018083116107aa57829003601f168201915b505050505081565b604080516060810182526000808252602080830182905292820152825190916107fe918401810190840161132c565b92915050565b8060015461081291906113ac565b6001556001600160a01b0382166000908152600260205260409020546108399082906113ac565b6001600160a01b0390921660009081526002602052604090209190915550565b8060015461086791906113bf565b6001556001600160a01b0382166000908152600260205260409020546108399082906113bf565b634e487b7160e01b600052604160045260246000fd5b604080519081016001600160401b03811182821017156108c6576108c661088e565b60405290565b60405160e081016001600160401b03811182821017156108c6576108c661088e565b604051601f8201601f191681016001600160401b03811182821017156109165761091661088e565b604052919050565b600082601f83011261092f57600080fd5b81356001600160401b038111156109485761094861088e565b61095b601f8201601f19166020016108ee565b81815284602083860101111561097057600080fd5b816020850160208301376000918101602001919091529392505050565b80356001600160401b03811681146109a457600080fd5b919050565b6000604082840312156109bb57600080fd5b6109c36108a4565b905081356001600160401b038111156109db57600080fd5b6109e78482850161091e565b8252506109f66020830161098d565b602082015292915050565b600060e08284031215610a1357600080fd5b610a1b6108cc565b905081356001600160401b0380821115610a3457600080fd5b610a408583860161091e565b83526020840135915080821115610a5657600080fd5b610a628583860161091e565b6020840152604084013560408401526060840135915080821115610a8557600080fd5b610a918583860161091e565b60608401526080840135915080821115610aaa57600080fd5b610ab68583860161091e565b608084015260a084013560a084015260c0840135915080821115610ad957600080fd5b50610ae6848285016109a9565b60c08301525092915050565b600060208284031215610b0457600080fd5b81356001600160401b0380821115610b1b57600080fd5b9083019060408286031215610b2f57600080fd5b610b376108a4565b823582811115610b4657600080fd5b610b5287828601610a01565b825250602083013582811115610b6757600080fd5b610b738782860161091e565b60208301525095945050505050565b60006001600160401b03821115610b9b57610b9b61088e565b5060051b60200190565b600082601f830112610bb657600080fd5b81356020610bcb610bc683610b82565b6108ee565b82815260059290921b84018101918181019086841115610bea57600080fd5b8286015b84811015610c295780356001600160401b03811115610c0d5760008081fd5b610c1b8986838b010161091e565b845250918301918301610bee565b509695505050505050565b600060e08284031215610c4657600080fd5b610c4e6108cc565b905081356001600160401b0380821115610c6757600080fd5b610c738583860161091e565b83526020840135915080821115610c8957600080fd5b610c958583860161091e565b6020840152604084013560408401526060840135915080821115610cb857600080fd5b610cc48583860161091e565b60608401526080840135608084015260a0840135915080821115610ce757600080fd5b50610cf484828501610ba5565b60a08301525060c082013560c082015292915050565b600060208284031215610d1c57600080fd5b81356001600160401b03811115610d3257600080fd5b610d3e84828501610c34565b949350505050565b6001600160a01b0381168114610d5b57600080fd5b50565b600060208284031215610d7057600080fd5b8135610d7b81610d46565b9392505050565b60008060408385031215610d9557600080fd5b8235610da081610d46565b946020939093013593505050565b60006020808385031215610dc157600080fd5b82356001600160401b0380821115610dd857600080fd5b81850191506040808388031215610dee57600080fd5b610df66108a4565b833583811115610e0557600080fd5b610e1189828701610c34565b8252508484013583811115610e2557600080fd5b80850194505087601f850112610e3a57600080fd5b8335610e48610bc682610b82565b81815260059190911b8501860190868101908a831115610e6757600080fd5b8787015b83811015610ef757803587811115610e835760008081fd5b8801808d03601f1901871315610e995760008081fd5b610ea16108a4565b8a82013589811115610eb35760008081fd5b610ec18f8d8386010161091e565b8252508782013589811115610ed65760008081fd5b610ee48f8d8386010161091e565b828d015250845250918801918801610e6b565b509683019690965250979650505050505050565b600060208284031215610f1d57600080fd5b81356001600160401b03811115610f3357600080fd5b610d3e84828501610a01565b600080600080600060a08688031215610f5757600080fd5b8535610f6281610d46565b945060208601356001600160401b03811115610f7d57600080fd5b610f898882890161091e565b9450506040860135925060608601359150610fa66080870161098d565b90509295509295909350565b600080600080600060a08688031215610fca57600080fd5b85356001600160401b0380821115610fe157600080fd5b610fed89838a0161091e565b9650602088013591508082111561100357600080fd5b50610f8988828901610ba5565b60006020828403121561102257600080fd5b81356001600160401b0381111561103857600080fd5b610d3e8482850161091e565b60005b8381101561105f578181015183820152602001611047565b50506000910152565b60008151808452611080816020860160208601611044565b601f01601f19169290920160200192915050565b602081526000610d7b6020830184611068565b600082516110b9818460208701611044565b9190910192915050565b600181811c908216806110d757607f821691505b6020821081036110f757634e487b7160e01b600052602260045260246000fd5b50919050565b60008151604084526111126040850182611068565b6020938401516001600160401b0316949093019390935250919050565b60208152600082516080602084015261114b60a0840182611068565b90506020840151601f19808584030160408601526111698383611068565b925060408601519150808584030160608601525061118782826110fd565b915050606084015160808401528091505092915050565b60006020808352835160a0828501526111ba60c0850182611068565b90508185015160408501526040850151601f19808684030160608701528282518085528585019150858160051b860101868501945060005b8281101561121e578487830301845261120c828751611068565b958801959388019391506001016111f2565b5060608a015160808a015260808a0151965061124560a08a01886001600160401b03169052565b9998505050505050505050565b602081526000825160406020840152805160e06060850152611278610140850182611068565b90506020820151605f19808684030160808701526112968383611068565b9250604084015160a087015260608401519150808684030160c08701526112bd8383611068565b925060808401519150808684030160e08701526112da8383611068565b925060a084015161010087015260c084015193508086840301610120870152505061130581836110fd565b9150506020840151601f198483030160408501526113238282611068565b95945050505050565b60006060828403121561133e57600080fd5b604051606081018181106001600160401b03821117156113605761136061088e565b604052825161136e81610d46565b8152602083015161137e81610d46565b60208201526040928301519281019290925250919050565b634e487b7160e01b600052601160045260246000fd5b808201808211156107fe576107fe611396565b818103818111156107fe576107fe61139656fea26469706673582212200448be8f550e59806d612872201ef155bb80cc267364bab21873edea21e9387164736f6c63430008130033",
    "sourcePath": "/Users/davidsalami/Documents/open-source/polytope/substrate-ismp/pallet-ismp/evm/src/example.sol",
    "compiler": {
        "name": "solc",
        "version": "0.8.19+commit.7dd6d404"
    },
    "functionHashes": {
        "OnAccept((bytes,bytes,uint256,bytes,bytes,uint256,(bytes,uint64)))": "c85ad8cf",
        "OnGetResponse(((bytes,bytes,uint256,bytes,uint256,bytes[],uint256),(bytes,bytes)[]))": "72b6933d",
        "OnGetTimeout((bytes,bytes,uint256,bytes,uint256,bytes[],uint256))": "20d1638a",
        "OnPostResponse(((bytes,bytes,uint256,bytes,bytes,uint256,(bytes,uint64)),bytes))": "12a7beee",
        "OnPostTimeout((bytes,bytes,uint256,bytes,bytes,uint256,(bytes,uint64)))": "880e2bd9",
        "balances(address)": "27e235e3",
        "dispatchGet(bytes,bytes[],uint256,uint256,uint64)": "a428bcda",
        "mintTo(address,uint256)": "449a52f8",
        "moduleIds(bytes)": "dcbde0df",
        "transfer(address,bytes,uint256,uint256,uint64)": "8ad5744c"
    },
    "gasEstimates": {
        "creation": {
            "codeDepositCost": "1025600",
            "executionCost": "infinite",
            "totalCost": "infinite"
        },
        "external": {
            "OnAccept((bytes,bytes,uint256,bytes,bytes,uint256,(bytes,uint64)))": "infinite",
            "OnGetResponse(((bytes,bytes,uint256,bytes,uint256,bytes[],uint256),(bytes,bytes)[]))": "infinite",
            "OnGetTimeout((bytes,bytes,uint256,bytes,uint256,bytes[],uint256))": "infinite",
            "OnPostResponse(((bytes,bytes,uint256,bytes,bytes,uint256,(bytes,uint64)),bytes))": "infinite",
            "OnPostTimeout((bytes,bytes,uint256,bytes,bytes,uint256,(bytes,uint64)))": "infinite",
            "balances(address)": "2547",
            "dispatchGet(bytes,bytes[],uint256,uint256,uint64)": "infinite",
            "mintTo(address,uint256)": "infinite",
            "moduleIds(bytes)": "infinite",
            "transfer(address,bytes,uint256,uint256,uint64)": "infinite"
        },
        "internal": {
            "_burn(address,uint256)": "infinite",
            "_mint(address,uint256)": "infinite",
            "decodePayload(bytes memory)": "infinite"
        }
    }
}