{
    "contractName": "IsmpDemo",
    "abi": [
        {
            "inputs": [],
            "stateMutability": "nonpayable",
            "type": "constructor"
        },
        {
            "inputs": [],
            "name": "ExecutionFailed",
            "type": "error"
        },
        {
            "inputs": [],
            "name": "NotIsmpHost",
            "type": "error"
        },
        {
            "anonymous": false,
            "inputs": [],
            "name": "BalanceBurnt",
            "type": "event"
        },
        {
            "anonymous": false,
            "inputs": [],
            "name": "BalanceMinted",
            "type": "event"
        },
        {
            "anonymous": false,
            "inputs": [],
            "name": "GetDispatched",
            "type": "event"
        },
        {
            "anonymous": false,
            "inputs": [],
            "name": "ResponseReceived",
            "type": "event"
        },
        {
            "anonymous": false,
            "inputs": [],
            "name": "TimeoutReceived",
            "type": "event"
        },
        {
            "inputs": [
                {
                    "components": [
                        {
                            "internalType": "bytes",
                            "name": "source",
                            "type": "bytes"
                        },
                        {
                            "internalType": "bytes",
                            "name": "dest",
                            "type": "bytes"
                        },
                        {
                            "internalType": "uint256",
                            "name": "nonce",
                            "type": "uint256"
                        },
                        {
                            "internalType": "bytes",
                            "name": "from",
                            "type": "bytes"
                        },
                        {
                            "internalType": "bytes",
                            "name": "to",
                            "type": "bytes"
                        },
                        {
                            "internalType": "uint256",
                            "name": "timeoutTimestamp",
                            "type": "uint256"
                        },
                        {
                            "components": [
                                {
                                    "internalType": "bytes",
                                    "name": "data",
                                    "type": "bytes"
                                },
                                {
                                    "internalType": "uint256",
                                    "name": "gasLimit",
                                    "type": "uint256"
                                }
                            ],
                            "internalType": "struct ContractData",
                            "name": "data",
                            "type": "tuple"
                        }
                    ],
                    "internalType": "struct PostRequest",
                    "name": "request",
                    "type": "tuple"
                }
            ],
            "name": "OnAccept",
            "outputs": [],
            "stateMutability": "nonpayable",
            "type": "function"
        },
        {
            "inputs": [
                {
                    "components": [
                        {
                            "components": [
                                {
                                    "internalType": "bytes",
                                    "name": "source",
                                    "type": "bytes"
                                },
                                {
                                    "internalType": "bytes",
                                    "name": "dest",
                                    "type": "bytes"
                                },
                                {
                                    "internalType": "uint256",
                                    "name": "nonce",
                                    "type": "uint256"
                                },
                                {
                                    "internalType": "bytes",
                                    "name": "from",
                                    "type": "bytes"
                                },
                                {
                                    "internalType": "uint256",
                                    "name": "timeoutTimestamp",
                                    "type": "uint256"
                                },
                                {
                                    "internalType": "bytes[]",
                                    "name": "keys",
                                    "type": "bytes[]"
                                },
                                {
                                    "internalType": "uint256",
                                    "name": "height",
                                    "type": "uint256"
                                }
                            ],
                            "internalType": "struct GetRequest",
                            "name": "request",
                            "type": "tuple"
                        },
                        {
                            "components": [
                                {
                                    "internalType": "bytes",
                                    "name": "key",
                                    "type": "bytes"
                                },
                                {
                                    "internalType": "bytes",
                                    "name": "value",
                                    "type": "bytes"
                                }
                            ],
                            "internalType": "struct StorageValue[]",
                            "name": "values",
                            "type": "tuple[]"
                        }
                    ],
                    "internalType": "struct GetResponse",
                    "name": "response",
                    "type": "tuple"
                }
            ],
            "name": "OnGetResponse",
            "outputs": [],
            "stateMutability": "nonpayable",
            "type": "function"
        },
        {
            "inputs": [
                {
                    "components": [
                        {
                            "internalType": "bytes",
                            "name": "source",
                            "type": "bytes"
                        },
                        {
                            "internalType": "bytes",
                            "name": "dest",
                            "type": "bytes"
                        },
                        {
                            "internalType": "uint256",
                            "name": "nonce",
                            "type": "uint256"
                        },
                        {
                            "internalType": "bytes",
                            "name": "from",
                            "type": "bytes"
                        },
                        {
                            "internalType": "uint256",
                            "name": "timeoutTimestamp",
                            "type": "uint256"
                        },
                        {
                            "internalType": "bytes[]",
                            "name": "keys",
                            "type": "bytes[]"
                        },
                        {
                            "internalType": "uint256",
                            "name": "height",
                            "type": "uint256"
                        }
                    ],
                    "internalType": "struct GetRequest",
                    "name": "request",
                    "type": "tuple"
                }
            ],
            "name": "OnGetTimeout",
            "outputs": [],
            "stateMutability": "nonpayable",
            "type": "function"
        },
        {
            "inputs": [
                {
                    "components": [
                        {
                            "components": [
                                {
                                    "internalType": "bytes",
                                    "name": "source",
                                    "type": "bytes"
                                },
                                {
                                    "internalType": "bytes",
                                    "name": "dest",
                                    "type": "bytes"
                                },
                                {
                                    "internalType": "uint256",
                                    "name": "nonce",
                                    "type": "uint256"
                                },
                                {
                                    "internalType": "bytes",
                                    "name": "from",
                                    "type": "bytes"
                                },
                                {
                                    "internalType": "bytes",
                                    "name": "to",
                                    "type": "bytes"
                                },
                                {
                                    "internalType": "uint256",
                                    "name": "timeoutTimestamp",
                                    "type": "uint256"
                                },
                                {
                                    "components": [
                                        {
                                            "internalType": "bytes",
                                            "name": "data",
                                            "type": "bytes"
                                        },
                                        {
                                            "internalType": "uint256",
                                            "name": "gasLimit",
                                            "type": "uint256"
                                        }
                                    ],
                                    "internalType": "struct ContractData",
                                    "name": "data",
                                    "type": "tuple"
                                }
                            ],
                            "internalType": "struct PostRequest",
                            "name": "request",
                            "type": "tuple"
                        },
                        {
                            "internalType": "bytes",
                            "name": "response",
                            "type": "bytes"
                        }
                    ],
                    "internalType": "struct PostResponse",
                    "name": "response",
                    "type": "tuple"
                }
            ],
            "name": "OnPostResponse",
            "outputs": [],
            "stateMutability": "nonpayable",
            "type": "function"
        },
        {
            "inputs": [
                {
                    "components": [
                        {
                            "internalType": "bytes",
                            "name": "source",
                            "type": "bytes"
                        },
                        {
                            "internalType": "bytes",
                            "name": "dest",
                            "type": "bytes"
                        },
                        {
                            "internalType": "uint256",
                            "name": "nonce",
                            "type": "uint256"
                        },
                        {
                            "internalType": "bytes",
                            "name": "from",
                            "type": "bytes"
                        },
                        {
                            "internalType": "bytes",
                            "name": "to",
                            "type": "bytes"
                        },
                        {
                            "internalType": "uint256",
                            "name": "timeoutTimestamp",
                            "type": "uint256"
                        },
                        {
                            "components": [
                                {
                                    "internalType": "bytes",
                                    "name": "data",
                                    "type": "bytes"
                                },
                                {
                                    "internalType": "uint256",
                                    "name": "gasLimit",
                                    "type": "uint256"
                                }
                            ],
                            "internalType": "struct ContractData",
                            "name": "data",
                            "type": "tuple"
                        }
                    ],
                    "internalType": "struct PostRequest",
                    "name": "request",
                    "type": "tuple"
                }
            ],
            "name": "OnPostTimeout",
            "outputs": [],
            "stateMutability": "nonpayable",
            "type": "function"
        },
        {
            "inputs": [
                {
                    "internalType": "address",
                    "name": "",
                    "type": "address"
                }
            ],
            "name": "balances",
            "outputs": [
                {
                    "internalType": "uint256",
                    "name": "",
                    "type": "uint256"
                }
            ],
            "stateMutability": "view",
            "type": "function"
        },
        {
            "inputs": [
                {
                    "internalType": "bytes",
                    "name": "dest",
                    "type": "bytes"
                },
                {
                    "internalType": "bytes[]",
                    "name": "keys",
                    "type": "bytes[]"
                },
                {
                    "internalType": "uint256",
                    "name": "height",
                    "type": "uint256"
                },
                {
                    "internalType": "uint256",
                    "name": "timeout",
                    "type": "uint256"
                },
                {
                    "internalType": "uint256",
                    "name": "gasLimit",
                    "type": "uint256"
                }
            ],
            "name": "dispatchGet",
            "outputs": [],
            "stateMutability": "nonpayable",
            "type": "function"
        },
        {
            "inputs": [
                {
                    "internalType": "address",
                    "name": "who",
                    "type": "address"
                },
                {
                    "internalType": "uint256",
                    "name": "amount",
                    "type": "uint256"
                }
            ],
            "name": "mintTo",
            "outputs": [],
            "stateMutability": "nonpayable",
            "type": "function"
        },
        {
            "inputs": [
                {
                    "internalType": "address",
                    "name": "to",
                    "type": "address"
                },
                {
                    "internalType": "bytes",
                    "name": "dest",
                    "type": "bytes"
                },
                {
                    "internalType": "uint256",
                    "name": "amount",
                    "type": "uint256"
                },
                {
                    "internalType": "uint256",
                    "name": "timeout",
                    "type": "uint256"
                },
                {
                    "internalType": "uint256",
                    "name": "gasLimit",
                    "type": "uint256"
                }
            ],
            "name": "transfer",
            "outputs": [],
            "stateMutability": "nonpayable",
            "type": "function"
        }
    ],
    "bytecode": "608060405234801561001057600080fd5b50600080546001600160a01b0319169055633b9aca006001556113b7806100386000396000f3fe608060405234801561001057600080fd5b50600436106100935760003560e01c806372b6933d1161006657806372b6933d1461010557806396ed99e0146101185780639a8de2a51461012b578063a841f0b91461013e578063f6b71ad01461015157600080fd5b806320d1638a1461009857806327e235e3146100ad578063449a52f8146100df57806365d1b483146100f2575b600080fd5b6100ab6100a6366004610bcc565b610164565b005b6100cd6100bb366004610c20565b60026020526000908152604090205481565b60405190815260200160405180910390f35b6100ab6100ed366004610c44565b610223565b6100ab610100366004610db2565b61025c565b6100ab610113366004610de6565b6103c1565b6100ab610126366004610f43565b610484565b6100ab610139366004610db2565b610557565b6100ab61014c366004610fc1565b6105d6565b6100ab61015f366004611051565b610644565b6000546001600160a01b0316331461018f576040516351ab8de560e01b815260040160405180910390fd5b60005b8160a00151518110156101f65760008260a0015182815181106101b7576101b761109b565b6020026020010151905080516000036101e357604051632b3f6d1160e21b815260040160405180910390fd5b50806101ee816110c7565b915050610192565b506040517f7265059b18e944f453138c2649bb3f8dbc4e555e5c0605b0ffb419cf8ae8c1ba90600090a150565b6000546001600160a01b0316331461024e576040516351ab8de560e01b815260040160405180910390fd5b6102588282610799565b5050565b6000546001600160a01b03163314610287576040516351ab8de560e01b815260040160405180910390fd5b600061029a8260c00151600001516107ee565b905060006040518060400160405280848152602001336040516020016102d8919060609190911b6bffffffffffffffffffffffff1916815260140190565b60405160208183030381529060405281525090506102fe82600001518360400151610799565b600061030982610823565b905060008060036001600160a01b0316836040516103279190611104565b600060405180830381855afa9150503d8060008114610362576040519150601f19603f3d011682016040523d82523d6000602084013e610367565b606091505b509150915081156103a0576040517f6cc69d45d4c21d1cb43e28df929c90259b7ad8d41e32f02f47ccda71aeb046ab90600090a16103b9565b604051632b3f6d1160e21b815260040160405180910390fd5b505050505050565b6000546001600160a01b031633146103ec576040516351ab8de560e01b815260040160405180910390fd5b60005b816020015151811015610457576000826020015182815181106104145761041461109b565b6020026020010151905080602001515160000361044457604051632b3f6d1160e21b815260040160405180910390fd5b508061044f816110c7565b9150506103ef565b506040517f2d87323053ce5d424f6bb99d64894f647db556f19f4319ee6bf817bf23bf520790600090a150565b60006040518060a0016040528087815260200185815260200186815260200184815260200183815250905060006104ba826108a2565b905060008060026001600160a01b0316836040516104d89190611104565b600060405180830381855afa9150503d8060008114610513576040519150601f19603f3d011682016040523d82523d6000602084013e610518565b606091505b509150915081156103a0576040517f51a298a0eb173998598862ac7e847cb267f553d502347aec82bf8b81528dd7aa90600090a1505050505050505050565b6000546001600160a01b03163314610582576040516351ab8de560e01b815260040160405180910390fd5b60006105958260c00151600001516107ee565b90506105a981602001518260400151610799565b6040517f6cc69d45d4c21d1cb43e28df929c90259b7ad8d41e32f02f47ccda71aeb046ab90600090a15050565b6000546001600160a01b03163314610601576040516351ab8de560e01b815260040160405180910390fd5b805160c0015151600090610614906107ee565b6040519091507f2d87323053ce5d424f6bb99d64894f647db556f19f4319ee6bf817bf23bf520790600090a15050565b61064e33846108e7565b60408051606080820183526001600160a01b0388811683523360208085019182528486018981528651808801885292518651915190851684870152931660808084019190915260a0808401949094528651808403909401845260c083018752928252818101879052855192830186528983528551600360621b8183015286516014818303018152603490910187529083015293810184905290810185905290919060006106fa8261091c565b905060008060016001600160a01b0316836040516107189190611104565b600060405180830381855afa9150503d8060008114610753576040519150601f19603f3d011682016040523d82523d6000602084013e610758565b606091505b509150915081156103a0576040517fb56b29fc7f72737821b2cf8a996ecebbea0d83daada768f5564a873f402cdd2190600090a15050505050505050505050565b806001546107a79190611120565b6001556001600160a01b0382166000908152600260205260409020546107ce908290611120565b6001600160a01b0390921660009081526002602052604090209190915550565b6040805160608101825260008082526020808301829052928201528251909161081d9184018101908401611133565b92915050565b80518051602080830151604080850151606086810151608088015160a089015160c0909901519451929860009861086398909796939492939192016111f2565b604051602081830303815290604052905080836020015160405160200161088b92919061126d565b604051602081830303815290604052915050919050565b6060816000015182602001518360400151846060015185608001516040516020016108d195949392919061129b565b6040516020818303038152906040529050919050565b806001546108f59190611323565b6001556001600160a01b0382166000908152600260205260409020546107ce908290611323565b606081600001518260200151836040015184606001516040516020016108d19493929190611336565b634e487b7160e01b600052604160045260246000fd5b60405160e081016001600160401b038111828210171561097d5761097d610945565b60405290565b604080519081016001600160401b038111828210171561097d5761097d610945565b604051601f8201601f191681016001600160401b03811182821017156109cd576109cd610945565b604052919050565b600082601f8301126109e657600080fd5b81356001600160401b038111156109ff576109ff610945565b610a12601f8201601f19166020016109a5565b818152846020838601011115610a2757600080fd5b816020850160208301376000918101602001919091529392505050565b60006001600160401b03821115610a5d57610a5d610945565b5060051b60200190565b600082601f830112610a7857600080fd5b81356020610a8d610a8883610a44565b6109a5565b82815260059290921b84018101918181019086841115610aac57600080fd5b8286015b84811015610aeb5780356001600160401b03811115610acf5760008081fd5b610add8986838b01016109d5565b845250918301918301610ab0565b509695505050505050565b600060e08284031215610b0857600080fd5b610b1061095b565b905081356001600160401b0380821115610b2957600080fd5b610b35858386016109d5565b83526020840135915080821115610b4b57600080fd5b610b57858386016109d5565b6020840152604084013560408401526060840135915080821115610b7a57600080fd5b610b86858386016109d5565b60608401526080840135608084015260a0840135915080821115610ba957600080fd5b50610bb684828501610a67565b60a08301525060c082013560c082015292915050565b600060208284031215610bde57600080fd5b81356001600160401b03811115610bf457600080fd5b610c0084828501610af6565b949350505050565b6001600160a01b0381168114610c1d57600080fd5b50565b600060208284031215610c3257600080fd5b8135610c3d81610c08565b9392505050565b60008060408385031215610c5757600080fd5b8235610c6281610c08565b946020939093013593505050565b600060408284031215610c8257600080fd5b610c8a610983565b905081356001600160401b03811115610ca257600080fd5b610cae848285016109d5565b8252506020820135602082015292915050565b600060e08284031215610cd357600080fd5b610cdb61095b565b905081356001600160401b0380821115610cf457600080fd5b610d00858386016109d5565b83526020840135915080821115610d1657600080fd5b610d22858386016109d5565b6020840152604084013560408401526060840135915080821115610d4557600080fd5b610d51858386016109d5565b60608401526080840135915080821115610d6a57600080fd5b610d76858386016109d5565b608084015260a084013560a084015260c0840135915080821115610d9957600080fd5b50610da684828501610c70565b60c08301525092915050565b600060208284031215610dc457600080fd5b81356001600160401b03811115610dda57600080fd5b610c0084828501610cc1565b60006020808385031215610df957600080fd5b82356001600160401b0380821115610e1057600080fd5b81850191506040808388031215610e2657600080fd5b610e2e610983565b833583811115610e3d57600080fd5b610e4989828701610af6565b8252508484013583811115610e5d57600080fd5b80850194505087601f850112610e7257600080fd5b8335610e80610a8882610a44565b81815260059190911b8501860190868101908a831115610e9f57600080fd5b8787015b83811015610f2f57803587811115610ebb5760008081fd5b8801808d03601f1901871315610ed15760008081fd5b610ed9610983565b8a82013589811115610eeb5760008081fd5b610ef98f8d838601016109d5565b8252508782013589811115610f0e5760008081fd5b610f1c8f8d838601016109d5565b828d015250845250918801918801610ea3565b509683019690965250979650505050505050565b600080600080600060a08688031215610f5b57600080fd5b85356001600160401b0380821115610f7257600080fd5b610f7e89838a016109d5565b96506020880135915080821115610f9457600080fd5b50610fa188828901610a67565b959895975050505060408401359360608101359360809091013592509050565b600060208284031215610fd357600080fd5b81356001600160401b0380821115610fea57600080fd5b9083019060408286031215610ffe57600080fd5b611006610983565b82358281111561101557600080fd5b61102187828601610cc1565b82525060208301358281111561103657600080fd5b611042878286016109d5565b60208301525095945050505050565b600080600080600060a0868803121561106957600080fd5b853561107481610c08565b945060208601356001600160401b0381111561108f57600080fd5b610fa1888289016109d5565b634e487b7160e01b600052603260045260246000fd5b634e487b7160e01b600052601160045260246000fd5b6000600182016110d9576110d96110b1565b5060010190565b60005b838110156110fb5781810151838201526020016110e3565b50506000910152565b600082516111168184602087016110e0565b9190910192915050565b8082018082111561081d5761081d6110b1565b60006060828403121561114557600080fd5b604051606081018181106001600160401b038211171561116757611167610945565b604052825161117581610c08565b8152602083015161118581610c08565b60208201526040928301519281019290925250919050565b600081518084526111b58160208601602086016110e0565b601f01601f19169290920160200192915050565b60008151604084526111de604085018261119d565b602093840151949093019390935250919050565b60e08152600061120560e083018a61119d565b8281036020840152611217818a61119d565b90508760408401528281036060840152611231818861119d565b90508281036080840152611245818761119d565b90508460a084015282810360c084015261125f81856111c9565b9a9950505050505050505050565b604081526000611280604083018561119d565b8281036020840152611292818561119d565b95945050505050565b60a0815260006112ae60a083018861119d565b6020878185015283820360408501528187518084528284019150828160051b850101838a0160005b8381101561130457601f198784030185526112f283835161119d565b948601949250908501906001016112d6565b5050606087019890985250505050608090910191909152509392505050565b8181038181111561081d5761081d6110b1565b608081526000611349608083018761119d565b828103602084015261135b818761119d565b9050828103604084015261136f81866111c9565b9150508260608301529594505050505056fea26469706673582212201b4d7b3a99415c3ecd42eed6352a306e0ac9aed385349ca42971c66ed55e628a64736f6c63430008130033",
    "sourcePath": "/Users/davidsalami/Documents/open-source/polytope/substrate-ismp/pallet-ismp/evm/solidity/example.sol",
    "compiler": {
        "name": "solc",
        "version": "0.8.19+commit.7dd6d404"
    },
    "functionHashes": {
        "OnAccept((bytes,bytes,uint256,bytes,bytes,uint256,(bytes,uint256)))": "65d1b483",
        "OnGetResponse(((bytes,bytes,uint256,bytes,uint256,bytes[],uint256),(bytes,bytes)[]))": "72b6933d",
        "OnGetTimeout((bytes,bytes,uint256,bytes,uint256,bytes[],uint256))": "20d1638a",
        "OnPostResponse(((bytes,bytes,uint256,bytes,bytes,uint256,(bytes,uint256)),bytes))": "a841f0b9",
        "OnPostTimeout((bytes,bytes,uint256,bytes,bytes,uint256,(bytes,uint256)))": "9a8de2a5",
        "balances(address)": "27e235e3",
        "dispatchGet(bytes,bytes[],uint256,uint256,uint256)": "96ed99e0",
        "mintTo(address,uint256)": "449a52f8",
        "transfer(address,bytes,uint256,uint256,uint256)": "f6b71ad0"
    },
    "gasEstimates": {
        "creation": {
            "codeDepositCost": "1009400",
            "executionCost": "47383",
            "totalCost": "1056783"
        },
        "external": {
            "OnAccept((bytes,bytes,uint256,bytes,bytes,uint256,(bytes,uint256)))": "infinite",
            "OnGetResponse(((bytes,bytes,uint256,bytes,uint256,bytes[],uint256),(bytes,bytes)[]))": "infinite",
            "OnGetTimeout((bytes,bytes,uint256,bytes,uint256,bytes[],uint256))": "infinite",
            "OnPostResponse(((bytes,bytes,uint256,bytes,bytes,uint256,(bytes,uint256)),bytes))": "infinite",
            "OnPostTimeout((bytes,bytes,uint256,bytes,bytes,uint256,(bytes,uint256)))": "infinite",
            "balances(address)": "2524",
            "dispatchGet(bytes,bytes[],uint256,uint256,uint256)": "infinite",
            "mintTo(address,uint256)": "infinite",
            "transfer(address,bytes,uint256,uint256,uint256)": "infinite"
        },
        "internal": {
            "_burn(address,uint256)": "infinite",
            "_mint(address,uint256)": "infinite",
            "decodePayload(bytes memory)": "infinite"
        }
    }
}